{
  "_format": "hh-sol-artifact-1",
  "contractName": "PriceConsumerV3",
  "sourceName": "contracts/PriceConsumerV3.sol",
  "abi": [
    {
      "inputs": [],
      "stateMutability": "nonpayable",
      "type": "constructor"
    },
    {
      "inputs": [
        {
          "internalType": "string",
          "name": "pair",
          "type": "string"
        }
      ],
      "name": "getLatestPrice",
      "outputs": [
        {
          "internalType": "int256",
          "name": "",
          "type": "int256"
        }
      ],
      "stateMutability": "view",
      "type": "function"
    }
  ],
  "bytecode": "0x608060405234801561001057600080fd5b50731b44f3514812d835eb1bdb0acb33d3fa3351ee43600060405161003490610229565b908152602001604051809103902060006101000a81548173ffffffffffffffffffffffffffffffffffffffff021916908373ffffffffffffffffffffffffffffffffffffffff16021790555073694aa1769357215de4fac081bf1f309adc32530660006040516100a39061028a565b908152602001604051809103902060006101000a81548173ffffffffffffffffffffffffffffffffffffffff021916908373ffffffffffffffffffffffffffffffffffffffff16021790555073c59e3633baac79493d908e63626716e204a45edf6000604051610112906102eb565b908152602001604051809103902060006101000a81548173ffffffffffffffffffffffffffffffffffffffff021916908373ffffffffffffffffffffffffffffffffffffffff160217905550735fb1616f78da7afc9ff79e0371741a747d2a7f2260006040516101819061034c565b908152602001604051809103902060006101000a81548173ffffffffffffffffffffffffffffffffffffffff021916908373ffffffffffffffffffffffffffffffffffffffff160217905550610361565b600081905092915050565b7f4254432f55534400000000000000000000000000000000000000000000000000600082015250565b60006102136007836101d2565b915061021e826101dd565b600782019050919050565b600061023482610206565b9150819050919050565b7f4554482f55534400000000000000000000000000000000000000000000000000600082015250565b60006102746007836101d2565b915061027f8261023e565b600782019050919050565b600061029582610267565b9150819050919050565b7f4c494e4b2f555344000000000000000000000000000000000000000000000000600082015250565b60006102d56008836101d2565b91506102e08261029f565b600882019050919050565b60006102f6826102c8565b9150819050919050565b7f4254432f45544800000000000000000000000000000000000000000000000000600082015250565b60006103366007836101d2565b915061034182610300565b600782019050919050565b600061035782610329565b9150819050919050565b6104d9806103706000396000f3fe608060405234801561001057600080fd5b506004361061002b5760003560e01c8063f66a1b7114610030575b600080fd5b61004a6004803603810190610045919061027f565b610060565b60405161005791906102e1565b60405180910390f35b600080600083604051610073919061036d565b908152602001604051809103902060009054906101000a900473ffffffffffffffffffffffffffffffffffffffff16905060008173ffffffffffffffffffffffffffffffffffffffff1663feaf968c6040518163ffffffff1660e01b815260040160a060405180830381865afa1580156100f1573d6000803e3d6000fd5b505050506040513d601f19601f820116820180604052508101906101159190610428565b5050509150508092505050919050565b6000604051905090565b600080fd5b600080fd5b600080fd5b600080fd5b6000601f19601f8301169050919050565b7f4e487b7100000000000000000000000000000000000000000000000000000000600052604160045260246000fd5b61018c82610143565b810181811067ffffffffffffffff821117156101ab576101aa610154565b5b80604052505050565b60006101be610125565b90506101ca8282610183565b919050565b600067ffffffffffffffff8211156101ea576101e9610154565b5b6101f382610143565b9050602081019050919050565b82818337600083830152505050565b600061022261021d846101cf565b6101b4565b90508281526020810184848401111561023e5761023d61013e565b5b610249848285610200565b509392505050565b600082601f83011261026657610265610139565b5b813561027684826020860161020f565b91505092915050565b6000602082840312156102955761029461012f565b5b600082013567ffffffffffffffff8111156102b3576102b2610134565b5b6102bf84828501610251565b91505092915050565b6000819050919050565b6102db816102c8565b82525050565b60006020820190506102f660008301846102d2565b92915050565b600081519050919050565b600081905092915050565b60005b83811015610330578082015181840152602081019050610315565b60008484015250505050565b6000610347826102fc565b6103518185610307565b9350610361818560208601610312565b80840191505092915050565b6000610379828461033c565b915081905092915050565b600069ffffffffffffffffffff82169050919050565b6103a381610384565b81146103ae57600080fd5b50565b6000815190506103c08161039a565b92915050565b6103cf816102c8565b81146103da57600080fd5b50565b6000815190506103ec816103c6565b92915050565b6000819050919050565b610405816103f2565b811461041057600080fd5b50565b600081519050610422816103fc565b92915050565b600080600080600060a086880312156104445761044361012f565b5b6000610452888289016103b1565b9550506020610463888289016103dd565b945050604061047488828901610413565b935050606061048588828901610413565b9250506080610496888289016103b1565b915050929550929590935056fea26469706673582212203b06aa9864f06f204cd2c6824045c3507dedae3474e492e0b9f9a2e8cbd24b8864736f6c63430008130033",
  "linkReferences": {},
  "deployedLinkReferences": {}
}